{
  "_format": "hh-sol-artifact-1",
  "contractName": "TokenFaucet",
  "sourceName": "contracts/TokenFaucet.sol",
  "abi": [
    {
      "inputs": [
        {
          "internalType": "address",
          "name": "_tokenAddress",
          "type": "address"
        }
      ],
      "stateMutability": "nonpayable",
      "type": "constructor"
    },
    {
      "anonymous": false,
      "inputs": [
        {
          "indexed": true,
          "internalType": "address",
          "name": "user",
          "type": "address"
        },
        {
          "indexed": false,
          "internalType": "uint256",
          "name": "amount",
          "type": "uint256"
        }
      ],
      "name": "TokensClaimed",
      "type": "event"
    },
    {
      "inputs": [],
      "name": "claimTokens",
      "outputs": [],
      "stateMutability": "nonpayable",
      "type": "function"
    },
    {
      "inputs": [
        {
          "internalType": "address",
          "name": "user",
          "type": "address"
        }
      ],
      "name": "getClaimStatus",
      "outputs": [
        {
          "internalType": "bool",
          "name": "",
          "type": "bool"
        }
      ],
      "stateMutability": "view",
      "type": "function"
    },
    {
      "inputs": [
        {
          "internalType": "address",
          "name": "",
          "type": "address"
        }
      ],
      "name": "hasClaimed",
      "outputs": [
        {
          "internalType": "bool",
          "name": "",
          "type": "bool"
        }
      ],
      "stateMutability": "view",
      "type": "function"
    },
    {
      "inputs": [],
      "name": "token",
      "outputs": [
        {
          "internalType": "contract IERC20",
          "name": "",
          "type": "address"
        }
      ],
      "stateMutability": "view",
      "type": "function"
    }
  ],
  "bytecode": "0x608060405234801561001057600080fd5b5060405161098a38038061098a833981810160405281019061003291906100db565b806000806101000a81548173ffffffffffffffffffffffffffffffffffffffff021916908373ffffffffffffffffffffffffffffffffffffffff16021790555050610108565b600080fd5b600073ffffffffffffffffffffffffffffffffffffffff82169050919050565b60006100a88261007d565b9050919050565b6100b88161009d565b81146100c357600080fd5b50565b6000815190506100d5816100af565b92915050565b6000602082840312156100f1576100f0610078565b5b60006100ff848285016100c6565b91505092915050565b610873806101176000396000f3fe608060405234801561001057600080fd5b506004361061004c5760003560e01c806348c54b9d1461005157806373b2e80e1461005b578063c9760f711461008b578063fc0c546a146100bb575b600080fd5b6100596100d9565b005b610075600480360381019061007091906104d2565b6103d5565b604051610082919061051a565b60405180910390f35b6100a560048036038101906100a091906104d2565b6103f5565b6040516100b2919061051a565b60405180910390f35b6100c361044b565b6040516100d09190610594565b60405180910390f35b600160003373ffffffffffffffffffffffffffffffffffffffff1673ffffffffffffffffffffffffffffffffffffffff16815260200190815260200160002060009054906101000a900460ff1615610166576040517f08c379a000000000000000000000000000000000000000000000000000000000815260040161015d9061060c565b60405180910390fd5b60018060003373ffffffffffffffffffffffffffffffffffffffff1673ffffffffffffffffffffffffffffffffffffffff16815260200190815260200160002060006101000a81548160ff021916908315150217905550600068056bc75e2d6310000090508060008054906101000a900473ffffffffffffffffffffffffffffffffffffffff1673ffffffffffffffffffffffffffffffffffffffff166370a08231306040518263ffffffff1660e01b8152600401610225919061063b565b602060405180830381865afa158015610242573d6000803e3d6000fd5b505050506040513d601f19601f82011682018060405250810190610266919061068c565b10156102a7576040517f08c379a000000000000000000000000000000000000000000000000000000000815260040161029e90610705565b60405180910390fd5b60008054906101000a900473ffffffffffffffffffffffffffffffffffffffff1673ffffffffffffffffffffffffffffffffffffffff1663a9059cbb33836040518363ffffffff1660e01b8152600401610302929190610734565b6020604051808303816000875af1158015610321573d6000803e3d6000fd5b505050506040513d601f19601f820116820180604052508101906103459190610789565b610384576040517f08c379a000000000000000000000000000000000000000000000000000000000815260040161037b90610802565b60405180910390fd5b3373ffffffffffffffffffffffffffffffffffffffff167f896e034966eaaf1adc54acc0f257056febbd300c9e47182cf761982cf1f5e430826040516103ca9190610822565b60405180910390a250565b60016020528060005260406000206000915054906101000a900460ff1681565b6000600160008373ffffffffffffffffffffffffffffffffffffffff1673ffffffffffffffffffffffffffffffffffffffff16815260200190815260200160002060009054906101000a900460ff169050919050565b60008054906101000a900473ffffffffffffffffffffffffffffffffffffffff1681565b600080fd5b600073ffffffffffffffffffffffffffffffffffffffff82169050919050565b600061049f82610474565b9050919050565b6104af81610494565b81146104ba57600080fd5b50565b6000813590506104cc816104a6565b92915050565b6000602082840312156104e8576104e761046f565b5b60006104f6848285016104bd565b91505092915050565b60008115159050919050565b610514816104ff565b82525050565b600060208201905061052f600083018461050b565b92915050565b6000819050919050565b600061055a61055561055084610474565b610535565b610474565b9050919050565b600061056c8261053f565b9050919050565b600061057e82610561565b9050919050565b61058e81610573565b82525050565b60006020820190506105a96000830184610585565b92915050565b600082825260208201905092915050565b7f416c726561647920636c61696d65640000000000000000000000000000000000600082015250565b60006105f6600f836105af565b9150610601826105c0565b602082019050919050565b60006020820190508181036000830152610625816105e9565b9050919050565b61063581610494565b82525050565b6000602082019050610650600083018461062c565b92915050565b6000819050919050565b61066981610656565b811461067457600080fd5b50565b60008151905061068681610660565b92915050565b6000602082840312156106a2576106a161046f565b5b60006106b084828501610677565b91505092915050565b7f466175636574206f7574206f6620746f6b656e73000000000000000000000000600082015250565b60006106ef6014836105af565b91506106fa826106b9565b602082019050919050565b6000602082019050818103600083015261071e816106e2565b9050919050565b61072e81610656565b82525050565b6000604082019050610749600083018561062c565b6107566020830184610725565b9392505050565b610766816104ff565b811461077157600080fd5b50565b6000815190506107838161075d565b92915050565b60006020828403121561079f5761079e61046f565b5b60006107ad84828501610774565b91505092915050565b7f5472616e73666572206661696c65640000000000000000000000000000000000600082015250565b60006107ec600f836105af565b91506107f7826107b6565b602082019050919050565b6000602082019050818103600083015261081b816107df565b9050919050565b60006020820190506108376000830184610725565b9291505056fea264697066735822122038aa0351748ce3f1afe7bcc402de5416e5c9b99bc84b85ebdef7a3910884e84a64736f6c634300081c0033",
  "linkReferences": {},
  "deployedLinkReferences": {}
}