{
  "_format": "hh-sol-artifact-1",
  "contractName": "TokenFaucet",
  "sourceName": "contracts/TokenFaucet.sol",
  "abi": [
    {
      "inputs": [
        {
          "internalType": "address",
          "name": "_tokenAddress",
          "type": "address"
        }
      ],
      "stateMutability": "nonpayable",
      "type": "constructor"
    },
    {
      "anonymous": false,
      "inputs": [
        {
          "indexed": true,
          "internalType": "address",
          "name": "user",
          "type": "address"
        },
        {
          "indexed": false,
          "internalType": "uint256",
          "name": "amount",
          "type": "uint256"
        }
      ],
      "name": "TokensClaimed",
      "type": "event"
    },
    {
      "inputs": [],
      "name": "claimTokens",
      "outputs": [],
      "stateMutability": "nonpayable",
      "type": "function"
    },
    {
      "inputs": [
        {
          "internalType": "address",
          "name": "user",
          "type": "address"
        }
      ],
      "name": "getClaimStatus",
      "outputs": [
        {
          "internalType": "bool",
          "name": "",
          "type": "bool"
        }
      ],
      "stateMutability": "view",
      "type": "function"
    },
    {
      "inputs": [
        {
          "internalType": "address",
          "name": "",
          "type": "address"
        }
      ],
      "name": "hasClaimed",
      "outputs": [
        {
          "internalType": "bool",
          "name": "",
          "type": "bool"
        }
      ],
      "stateMutability": "view",
      "type": "function"
    },
    {
      "inputs": [],
      "name": "token",
      "outputs": [
        {
          "internalType": "contract IERC20",
          "name": "",
          "type": "address"
        }
      ],
      "stateMutability": "view",
      "type": "function"
    }
  ],
  "bytecode": "0x6080604052348015600f57600080fd5b50604051610434380380610434833981016040819052602c916050565b600080546001600160a01b0319166001600160a01b0392909216919091179055607e565b600060208284031215606157600080fd5b81516001600160a01b0381168114607757600080fd5b9392505050565b6103a78061008d6000396000f3fe608060405234801561001057600080fd5b506004361061004c5760003560e01c806348c54b9d1461005157806373b2e80e1461005b578063c9760f7114610093578063fc0c546a146100bf575b600080fd5b6100596100ea565b005b61007e610069366004610306565b60016020526000908152604090205460ff1681565b60405190151581526020015b60405180910390f35b61007e6100a1366004610306565b6001600160a01b031660009081526001602052604090205460ff1690565b6000546100d2906001600160a01b031681565b6040516001600160a01b03909116815260200161008a565b3360009081526001602052604090205460ff16156101415760405162461bcd60e51b815260206004820152600f60248201526e105b1c9958591e4818db185a5b5959608a1b60448201526064015b60405180910390fd5b336000908152600160208190526040808320805460ff1916909217909155905490516370a0823160e01b815230600482015268056bc75e2d631000009182916001600160a01b03909116906370a0823190602401602060405180830381865afa1580156101b2573d6000803e3d6000fd5b505050506040513d601f19601f820116820180604052508101906101d69190610336565b101561021b5760405162461bcd60e51b8152602060048201526014602482015273466175636574206f7574206f6620746f6b656e7360601b6044820152606401610138565b60005460405163a9059cbb60e01b8152336004820152602481018390526001600160a01b039091169063a9059cbb906044016020604051808303816000875af115801561026c573d6000803e3d6000fd5b505050506040513d601f19601f82011682018060405250810190610290919061034f565b6102ce5760405162461bcd60e51b815260206004820152600f60248201526e151c985b9cd9995c8819985a5b1959608a1b6044820152606401610138565b60405181815233907f896e034966eaaf1adc54acc0f257056febbd300c9e47182cf761982cf1f5e4309060200160405180910390a250565b60006020828403121561031857600080fd5b81356001600160a01b038116811461032f57600080fd5b9392505050565b60006020828403121561034857600080fd5b5051919050565b60006020828403121561036157600080fd5b8151801515811461032f57600080fdfea2646970667358221220e520b09b9902754afefba14bea2185612b60733d0545301550f8b87f6b01916264736f6c634300081c0033",
  "linkReferences": {},
  "deployedLinkReferences": {}
}