{
  "_format": "hh-sol-artifact-1",
  "contractName": "TwitterAccount",
  "sourceName": "contracts/TwitterAccount.sol",
  "abi": [
    {
      "inputs": [
        {
          "internalType": "address",
          "name": "_twitterToken",
          "type": "address"
        },
        {
          "internalType": "address",
          "name": "_tokenFaucet",
          "type": "address"
        }
      ],
      "stateMutability": "nonpayable",
      "type": "constructor"
    },
    {
      "anonymous": false,
      "inputs": [
        {
          "indexed": true,
          "internalType": "uint256",
          "name": "tweetId",
          "type": "uint256"
        },
        {
          "indexed": true,
          "internalType": "address",
          "name": "author",
          "type": "address"
        },
        {
          "indexed": false,
          "internalType": "string",
          "name": "content",
          "type": "string"
        }
      ],
      "name": "TweetCreated",
      "type": "event"
    },
    {
      "anonymous": false,
      "inputs": [
        {
          "indexed": true,
          "internalType": "uint256",
          "name": "tweetId",
          "type": "uint256"
        },
        {
          "indexed": true,
          "internalType": "address",
          "name": "author",
          "type": "address"
        }
      ],
      "name": "TweetDeleted",
      "type": "event"
    },
    {
      "anonymous": false,
      "inputs": [
        {
          "indexed": true,
          "internalType": "uint256",
          "name": "tweetId",
          "type": "uint256"
        },
        {
          "indexed": true,
          "internalType": "address",
          "name": "user",
          "type": "address"
        }
      ],
      "name": "TweetLiked",
      "type": "event"
    },
    {
      "anonymous": false,
      "inputs": [
        {
          "indexed": true,
          "internalType": "address",
          "name": "userAddress",
          "type": "address"
        },
        {
          "indexed": false,
          "internalType": "string",
          "name": "username",
          "type": "string"
        },
        {
          "indexed": false,
          "internalType": "string",
          "name": "bio",
          "type": "string"
        }
      ],
      "name": "UserRegistered",
      "type": "event"
    },
    {
      "inputs": [],
      "name": "LIKE_COST",
      "outputs": [
        {
          "internalType": "uint256",
          "name": "",
          "type": "uint256"
        }
      ],
      "stateMutability": "view",
      "type": "function"
    },
    {
      "inputs": [],
      "name": "TWEET_COST",
      "outputs": [
        {
          "internalType": "uint256",
          "name": "",
          "type": "uint256"
        }
      ],
      "stateMutability": "view",
      "type": "function"
    },
    {
      "inputs": [
        {
          "internalType": "string",
          "name": "_content",
          "type": "string"
        }
      ],
      "name": "createTweet",
      "outputs": [],
      "stateMutability": "nonpayable",
      "type": "function"
    },
    {
      "inputs": [
        {
          "internalType": "uint256",
          "name": "_tweetId",
          "type": "uint256"
        }
      ],
      "name": "deleteTweet",
      "outputs": [],
      "stateMutability": "nonpayable",
      "type": "function"
    },
    {
      "inputs": [],
      "name": "getAllTweets",
      "outputs": [
        {
          "components": [
            {
              "internalType": "uint256",
              "name": "id",
              "type": "uint256"
            },
            {
              "internalType": "string",
              "name": "content",
              "type": "string"
            },
            {
              "internalType": "address",
              "name": "author",
              "type": "address"
            },
            {
              "internalType": "uint256",
              "name": "timestamp",
              "type": "uint256"
            },
            {
              "internalType": "bool",
              "name": "isDeleted",
              "type": "bool"
            },
            {
              "internalType": "uint256",
              "name": "likeCount",
              "type": "uint256"
            }
          ],
          "internalType": "struct TwitterAccount.Tweet[]",
          "name": "",
          "type": "tuple[]"
        }
      ],
      "stateMutability": "view",
      "type": "function"
    },
    {
      "inputs": [
        {
          "internalType": "uint256",
          "name": "_tweetId",
          "type": "uint256"
        }
      ],
      "name": "getTweet",
      "outputs": [
        {
          "components": [
            {
              "internalType": "uint256",
              "name": "id",
              "type": "uint256"
            },
            {
              "internalType": "string",
              "name": "content",
              "type": "string"
            },
            {
              "internalType": "address",
              "name": "author",
              "type": "address"
            },
            {
              "internalType": "uint256",
              "name": "timestamp",
              "type": "uint256"
            },
            {
              "internalType": "bool",
              "name": "isDeleted",
              "type": "bool"
            },
            {
              "internalType": "uint256",
              "name": "likeCount",
              "type": "uint256"
            }
          ],
          "internalType": "struct TwitterAccount.Tweet",
          "name": "",
          "type": "tuple"
        }
      ],
      "stateMutability": "view",
      "type": "function"
    },
    {
      "inputs": [
        {
          "internalType": "address",
          "name": "_user",
          "type": "address"
        }
      ],
      "name": "getUserByAddress",
      "outputs": [
        {
          "components": [
            {
              "internalType": "address",
              "name": "userAddress",
              "type": "address"
            },
            {
              "internalType": "string",
              "name": "username",
              "type": "string"
            },
            {
              "internalType": "string",
              "name": "bio",
              "type": "string"
            },
            {
              "components": [
                {
                  "internalType": "uint256",
                  "name": "id",
                  "type": "uint256"
                },
                {
                  "internalType": "string",
                  "name": "content",
                  "type": "string"
                },
                {
                  "internalType": "address",
                  "name": "author",
                  "type": "address"
                },
                {
                  "internalType": "uint256",
                  "name": "timestamp",
                  "type": "uint256"
                },
                {
                  "internalType": "bool",
                  "name": "isDeleted",
                  "type": "bool"
                },
                {
                  "internalType": "uint256",
                  "name": "likeCount",
                  "type": "uint256"
                }
              ],
              "internalType": "struct TwitterAccount.Tweet[]",
              "name": "tweets",
              "type": "tuple[]"
            }
          ],
          "internalType": "struct TwitterAccount.TwitterUser",
          "name": "",
          "type": "tuple"
        }
      ],
      "stateMutability": "view",
      "type": "function"
    },
    {
      "inputs": [
        {
          "internalType": "address",
          "name": "_user",
          "type": "address"
        }
      ],
      "name": "getUserInfo",
      "outputs": [
        {
          "internalType": "string",
          "name": "",
          "type": "string"
        },
        {
          "internalType": "string",
          "name": "",
          "type": "string"
        }
      ],
      "stateMutability": "view",
      "type": "function"
    },
    {
      "inputs": [
        {
          "internalType": "address",
          "name": "_user",
          "type": "address"
        }
      ],
      "name": "getUserTweets",
      "outputs": [
        {
          "components": [
            {
              "internalType": "uint256",
              "name": "id",
              "type": "uint256"
            },
            {
              "internalType": "string",
              "name": "content",
              "type": "string"
            },
            {
              "internalType": "address",
              "name": "author",
              "type": "address"
            },
            {
              "internalType": "uint256",
              "name": "timestamp",
              "type": "uint256"
            },
            {
              "internalType": "bool",
              "name": "isDeleted",
              "type": "bool"
            },
            {
              "internalType": "uint256",
              "name": "likeCount",
              "type": "uint256"
            }
          ],
          "internalType": "struct TwitterAccount.Tweet[]",
          "name": "",
          "type": "tuple[]"
        }
      ],
      "stateMutability": "view",
      "type": "function"
    },
    {
      "inputs": [
        {
          "internalType": "uint256",
          "name": "_tweetId",
          "type": "uint256"
        }
      ],
      "name": "likeTweet",
      "outputs": [],
      "stateMutability": "nonpayable",
      "type": "function"
    },
    {
      "inputs": [
        {
          "internalType": "string",
          "name": "_username",
          "type": "string"
        },
        {
          "internalType": "string",
          "name": "_bio",
          "type": "string"
        }
      ],
      "name": "registerUser",
      "outputs": [],
      "stateMutability": "nonpayable",
      "type": "function"
    },
    {
      "inputs": [],
      "name": "tokenFaucet",
      "outputs": [
        {
          "internalType": "contract TokenFaucet",
          "name": "",
          "type": "address"
        }
      ],
      "stateMutability": "view",
      "type": "function"
    },
    {
      "inputs": [],
      "name": "twitterToken",
      "outputs": [
        {
          "internalType": "contract IERC20",
          "name": "",
          "type": "address"
        }
      ],
      "stateMutability": "view",
      "type": "function"
    }
  ],
  "bytecode": "0x608060405234801561001057600080fd5b506040516130493803806130498339818101604052810190610032919061011d565b816000806101000a81548173ffffffffffffffffffffffffffffffffffffffff021916908373ffffffffffffffffffffffffffffffffffffffff16021790555080600160006101000a81548173ffffffffffffffffffffffffffffffffffffffff021916908373ffffffffffffffffffffffffffffffffffffffff160217905550505061015d565b600080fd5b600073ffffffffffffffffffffffffffffffffffffffff82169050919050565b60006100ea826100bf565b9050919050565b6100fa816100df565b811461010557600080fd5b50565b600081519050610117816100f1565b92915050565b60008060408385031215610134576101336100ba565b5b600061014285828601610108565b925050602061015385828601610108565b9150509250929050565b612edd8061016c6000396000f3fe608060405234801561001057600080fd5b50600436106100cf5760003560e01c80636386c1c71161008c57806389eb068a1161006657806389eb068a14610211578063c3ad5ecb1461022f578063ee21cac41461025f578063ff26506b1461027d576100cf565b80636386c1c71461019457806369c212f6146101c55780637c9cd2bc146101f5576100cf565b80631d2e4afd146100d45780632cc38899146100f05780632f5899d71461010e578063532561351461013e5780635775912a1461015c5780635ffc6ceb14610178575b600080fd5b6100ee60048036038101906100e99190611d60565b61029b565b005b6100f86104e5565b6040516101059190611e57565b60405180910390f35b61012860048036038101906101239190611eb0565b610509565b60405161013591906120ea565b60405180910390f35b6101466106cb565b60405161015391906120ea565b60405180910390f35b61017660048036038101906101719190612138565b6108bb565b005b610192600480360381019061018d9190612138565b610b1b565b005b6101ae60048036038101906101a99190611eb0565b610ef2565b6040516101bc9291906121af565b60405180910390f35b6101df60048036038101906101da9190611eb0565b611062565b6040516101ec91906122dd565b60405180910390f35b61020f600480360381019061020a91906122ff565b611486565b005b61021961199d565b6040516102269190612369565b60405180910390f35b61024960048036038101906102449190612138565b6119c3565b604051610256919061240d565b60405180910390f35b610267611b62565b604051610274919061243e565b60405180910390f35b610285611b6e565b604051610292919061243e565b60405180910390f35b60008251116102df576040517f08c379a00000000000000000000000000000000000000000000000000000000081526004016102d6906124a5565b60405180910390fd5b6000600260003373ffffffffffffffffffffffffffffffffffffffff1673ffffffffffffffffffffffffffffffffffffffff168152602001908152602001600020600101805461032e906124f4565b905014610370576040517f08c379a000000000000000000000000000000000000000000000000000000000815260040161036790612571565b60405180910390fd5b33600260003373ffffffffffffffffffffffffffffffffffffffff1673ffffffffffffffffffffffffffffffffffffffff16815260200190815260200160002060000160006101000a81548173ffffffffffffffffffffffffffffffffffffffff021916908373ffffffffffffffffffffffffffffffffffffffff16021790555081600260003373ffffffffffffffffffffffffffffffffffffffff1673ffffffffffffffffffffffffffffffffffffffff16815260200190815260200160002060010190816104409190612733565b5080600260003373ffffffffffffffffffffffffffffffffffffffff1673ffffffffffffffffffffffffffffffffffffffff16815260200190815260200160002060020190816104909190612733565b503373ffffffffffffffffffffffffffffffffffffffff167f92822564bab8864c3a47b34e8d23fbce5c46234eb5da261f94087b995ac0f33b83836040516104d99291906121af565b60405180910390a25050565b60008054906101000a900473ffffffffffffffffffffffffffffffffffffffff1681565b6060600260008373ffffffffffffffffffffffffffffffffffffffff1673ffffffffffffffffffffffffffffffffffffffff168152602001908152602001600020600301805480602002602001604051908101604052809291908181526020016000905b828210156106c057838290600052602060002090600602016040518060c0016040529081600082015481526020016001820180546105aa906124f4565b80601f01602080910402602001604051908101604052809291908181526020018280546105d6906124f4565b80156106235780601f106105f857610100808354040283529160200191610623565b820191906000526020600020905b81548152906001019060200180831161060657829003601f168201915b505050505081526020016002820160009054906101000a900473ffffffffffffffffffffffffffffffffffffffff1673ffffffffffffffffffffffffffffffffffffffff1673ffffffffffffffffffffffffffffffffffffffff168152602001600382015481526020016004820160009054906101000a900460ff161515151581526020016005820154815250508152602001906001019061056d565b505050509050919050565b6060600060045467ffffffffffffffff8111156106eb576106ea611c35565b5b60405190808252806020026020018201604052801561072457816020015b610711611b7a565b8152602001906001900390816107095790505b5090506000600190505b60045481116108b357600360008281526020019081526020016000206040518060c00160405290816000820154815260200160018201805461076f906124f4565b80601f016020809104026020016040519081016040528092919081815260200182805461079b906124f4565b80156107e85780601f106107bd576101008083540402835291602001916107e8565b820191906000526020600020905b8154815290600101906020018083116107cb57829003601f168201915b505050505081526020016002820160009054906101000a900473ffffffffffffffffffffffffffffffffffffffff1673ffffffffffffffffffffffffffffffffffffffff1673ffffffffffffffffffffffffffffffffffffffff168152602001600382015481526020016004820160009054906101000a900460ff16151515158152602001600582015481525050826001836108849190612834565b8151811061089557610894612868565b5b602002602001018190525080806108ab90612897565b91505061072e565b508091505090565b6000600260003373ffffffffffffffffffffffffffffffffffffffff1673ffffffffffffffffffffffffffffffffffffffff168152602001908152602001600020600101805461090a906124f4565b90501161094c576040517f08c379a00000000000000000000000000000000000000000000000000000000081526004016109439061292b565b60405180910390fd5b60008111801561095e57506004548111155b61099d576040517f08c379a000000000000000000000000000000000000000000000000000000000815260040161099490612997565b60405180910390fd5b3373ffffffffffffffffffffffffffffffffffffffff166003600083815260200190815260200160002060020160009054906101000a900473ffffffffffffffffffffffffffffffffffffffff1673ffffffffffffffffffffffffffffffffffffffff1614610a41576040517f08c379a0000000000000000000000000000000000000000000000000000000008152600401610a3890612a29565b60405180910390fd5b6003600082815260200190815260200160002060040160009054906101000a900460ff1615610aa5576040517f08c379a0000000000000000000000000000000000000000000000000000000008152600401610a9c90612a95565b60405180910390fd5b60016003600083815260200190815260200160002060040160006101000a81548160ff0219169083151502179055503373ffffffffffffffffffffffffffffffffffffffff16817f0c59351147397e5db9e258c8812261c4841477fed0248739ffd0ba3e4527550660405160405180910390a350565b6000600260003373ffffffffffffffffffffffffffffffffffffffff1673ffffffffffffffffffffffffffffffffffffffff1681526020019081526020016000206001018054610b6a906124f4565b905011610bac576040517f08c379a0000000000000000000000000000000000000000000000000000000008152600401610ba39061292b565b60405180910390fd5b6003600082815260200190815260200160002060040160009054906101000a900460ff1615610c10576040517f08c379a0000000000000000000000000000000000000000000000000000000008152600401610c0790612b01565b60405180910390fd5b670de0b6b3a764000060008054906101000a900473ffffffffffffffffffffffffffffffffffffffff1673ffffffffffffffffffffffffffffffffffffffff166370a08231336040518263ffffffff1660e01b8152600401610c729190612b30565b602060405180830381865afa158015610c8f573d6000803e3d6000fd5b505050506040513d601f19601f82011682018060405250810190610cb39190612b60565b1015610cf4576040517f08c379a0000000000000000000000000000000000000000000000000000000008152600401610ceb90612bff565b60405180910390fd5b60008054906101000a900473ffffffffffffffffffffffffffffffffffffffff1673ffffffffffffffffffffffffffffffffffffffff166323b872dd3330670de0b6b3a76400006040518463ffffffff1660e01b8152600401610d5993929190612c1f565b6020604051808303816000875af1158015610d78573d6000803e3d6000fd5b505050506040513d601f19601f82011682018060405250810190610d9c9190612c82565b610ddb576040517f08c379a0000000000000000000000000000000000000000000000000000000008152600401610dd290612cfb565b60405180910390fd5b3373ffffffffffffffffffffffffffffffffffffffff166003600083815260200190815260200160002060020160009054906101000a900473ffffffffffffffffffffffffffffffffffffffff1673ffffffffffffffffffffffffffffffffffffffff1603610e7f576040517f08c379a0000000000000000000000000000000000000000000000000000000008152600401610e7690612d67565b60405180910390fd5b600360008281526020019081526020016000206005016000815480929190610ea690612897565b91905055503373ffffffffffffffffffffffffffffffffffffffff16817f33b8f513b5466d89f2a96589e6e48f7682fddc5debd283e6bb921ed3bba52b7860405160405180910390a350565b6060806000600260008573ffffffffffffffffffffffffffffffffffffffff1673ffffffffffffffffffffffffffffffffffffffff16815260200190815260200160002090508060010181600201818054610f4c906124f4565b80601f0160208091040260200160405190810160405280929190818152602001828054610f78906124f4565b8015610fc55780601f10610f9a57610100808354040283529160200191610fc5565b820191906000526020600020905b815481529060010190602001808311610fa857829003601f168201915b50505050509150808054610fd8906124f4565b80601f0160208091040260200160405190810160405280929190818152602001828054611004906124f4565b80156110515780601f1061102657610100808354040283529160200191611051565b820191906000526020600020905b81548152906001019060200180831161103457829003601f168201915b505050505090509250925050915091565b61106a611bc8565b6000600260008473ffffffffffffffffffffffffffffffffffffffff1673ffffffffffffffffffffffffffffffffffffffff168152602001908152602001600020905060008160010180546110be906124f4565b905003611177576040518060800160405280600073ffffffffffffffffffffffffffffffffffffffff168152602001604051806020016040528060008152508152602001604051806020016040528060008152508152602001600067ffffffffffffffff81111561113257611131611c35565b5b60405190808252806020026020018201604052801561116b57816020015b611158611b7a565b8152602001906001900390816111505790505b50815250915050611481565b806040518060800160405290816000820160009054906101000a900473ffffffffffffffffffffffffffffffffffffffff1673ffffffffffffffffffffffffffffffffffffffff1673ffffffffffffffffffffffffffffffffffffffff1681526020016001820180546111e9906124f4565b80601f0160208091040260200160405190810160405280929190818152602001828054611215906124f4565b80156112625780601f1061123757610100808354040283529160200191611262565b820191906000526020600020905b81548152906001019060200180831161124557829003601f168201915b5050505050815260200160028201805461127b906124f4565b80601f01602080910402602001604051908101604052809291908181526020018280546112a7906124f4565b80156112f45780601f106112c9576101008083540402835291602001916112f4565b820191906000526020600020905b8154815290600101906020018083116112d757829003601f168201915b5050505050815260200160038201805480602002602001604051908101604052809291908181526020016000905b8282101561147557838290600052602060002090600602016040518060c00160405290816000820154815260200160018201805461135f906124f4565b80601f016020809104026020016040519081016040528092919081815260200182805461138b906124f4565b80156113d85780601f106113ad576101008083540402835291602001916113d8565b820191906000526020600020905b8154815290600101906020018083116113bb57829003601f168201915b505050505081526020016002820160009054906101000a900473ffffffffffffffffffffffffffffffffffffffff1673ffffffffffffffffffffffffffffffffffffffff1673ffffffffffffffffffffffffffffffffffffffff168152602001600382015481526020016004820160009054906101000a900460ff1615151515815260200160058201548152505081526020019060010190611322565b50505050815250509150505b919050565b6000600260003373ffffffffffffffffffffffffffffffffffffffff1673ffffffffffffffffffffffffffffffffffffffff16815260200190815260200160002060010180546114d5906124f4565b905011611517576040517f08c379a000000000000000000000000000000000000000000000000000000000815260040161150e9061292b565b60405180910390fd5b600081511161155b576040517f08c379a000000000000000000000000000000000000000000000000000000000815260040161155290612dd3565b60405180910390fd5b678ac7230489e8000060008054906101000a900473ffffffffffffffffffffffffffffffffffffffff1673ffffffffffffffffffffffffffffffffffffffff166370a08231336040518263ffffffff1660e01b81526004016115bd9190612b30565b602060405180830381865afa1580156115da573d6000803e3d6000fd5b505050506040513d601f19601f820116820180604052508101906115fe9190612b60565b101561163f576040517f08c379a000000000000000000000000000000000000000000000000000000000815260040161163690612e65565b60405180910390fd5b60008054906101000a900473ffffffffffffffffffffffffffffffffffffffff1673ffffffffffffffffffffffffffffffffffffffff166323b872dd3330678ac7230489e800006040518463ffffffff1660e01b81526004016116a493929190612c1f565b6020604051808303816000875af11580156116c3573d6000803e3d6000fd5b505050506040513d601f19601f820116820180604052508101906116e79190612c82565b611726576040517f08c379a000000000000000000000000000000000000000000000000000000000815260040161171d90612cfb565b60405180910390fd5b6004600081548092919061173990612897565b919050555060006040518060c0016040528060045481526020018381526020013373ffffffffffffffffffffffffffffffffffffffff16815260200142815260200160001515815260200160008152509050600260003373ffffffffffffffffffffffffffffffffffffffff1673ffffffffffffffffffffffffffffffffffffffff1681526020019081526020016000206003018190806001815401808255809150506001900390600052602060002090600602016000909190919091506000820151816000015560208201518160010190816118169190612733565b5060408201518160020160006101000a81548173ffffffffffffffffffffffffffffffffffffffff021916908373ffffffffffffffffffffffffffffffffffffffff1602179055506060820151816003015560808201518160040160006101000a81548160ff02191690831515021790555060a082015181600501555050806003600060045481526020019081526020016000206000820151816000015560208201518160010190816118c99190612733565b5060408201518160020160006101000a81548173ffffffffffffffffffffffffffffffffffffffff021916908373ffffffffffffffffffffffffffffffffffffffff1602179055506060820151816003015560808201518160040160006101000a81548160ff02191690831515021790555060a082015181600501559050503373ffffffffffffffffffffffffffffffffffffffff166004547f5b04dbcff53dfd77771f59e7ba56ec837ac5325729cf7f1dd0ed4aef082a6aab846040516119919190612e85565b60405180910390a35050565b600160009054906101000a900473ffffffffffffffffffffffffffffffffffffffff1681565b6119cb611b7a565b6000821180156119dd57506004548211155b611a1c576040517f08c379a0000000000000000000000000000000000000000000000000000000008152600401611a1390612997565b60405180910390fd5b600360008381526020019081526020016000206040518060c001604052908160008201548152602001600182018054611a54906124f4565b80601f0160208091040260200160405190810160405280929190818152602001828054611a80906124f4565b8015611acd5780601f10611aa257610100808354040283529160200191611acd565b820191906000526020600020905b815481529060010190602001808311611ab057829003601f168201915b505050505081526020016002820160009054906101000a900473ffffffffffffffffffffffffffffffffffffffff1673ffffffffffffffffffffffffffffffffffffffff1673ffffffffffffffffffffffffffffffffffffffff168152602001600382015481526020016004820160009054906101000a900460ff161515151581526020016005820154815250509050919050565b678ac7230489e8000081565b670de0b6b3a764000081565b6040518060c001604052806000815260200160608152602001600073ffffffffffffffffffffffffffffffffffffffff16815260200160008152602001600015158152602001600081525090565b6040518060800160405280600073ffffffffffffffffffffffffffffffffffffffff1681526020016060815260200160608152602001606081525090565b6000604051905090565b600080fd5b600080fd5b600080fd5b600080fd5b6000601f19601f8301169050919050565b7f4e487b7100000000000000000000000000000000000000000000000000000000600052604160045260246000fd5b611c6d82611c24565b810181811067ffffffffffffffff82111715611c8c57611c8b611c35565b5b80604052505050565b6000611c9f611c06565b9050611cab8282611c64565b919050565b600067ffffffffffffffff821115611ccb57611cca611c35565b5b611cd482611c24565b9050602081019050919050565b82818337600083830152505050565b6000611d03611cfe84611cb0565b611c95565b905082815260208101848484011115611d1f57611d1e611c1f565b5b611d2a848285611ce1565b509392505050565b600082601f830112611d4757611d46611c1a565b5b8135611d57848260208601611cf0565b91505092915050565b60008060408385031215611d7757611d76611c10565b5b600083013567ffffffffffffffff811115611d9557611d94611c15565b5b611da185828601611d32565b925050602083013567ffffffffffffffff811115611dc257611dc1611c15565b5b611dce85828601611d32565b9150509250929050565b600073ffffffffffffffffffffffffffffffffffffffff82169050919050565b6000819050919050565b6000611e1d611e18611e1384611dd8565b611df8565b611dd8565b9050919050565b6000611e2f82611e02565b9050919050565b6000611e4182611e24565b9050919050565b611e5181611e36565b82525050565b6000602082019050611e6c6000830184611e48565b92915050565b6000611e7d82611dd8565b9050919050565b611e8d81611e72565b8114611e9857600080fd5b50565b600081359050611eaa81611e84565b92915050565b600060208284031215611ec657611ec5611c10565b5b6000611ed484828501611e9b565b91505092915050565b600081519050919050565b600082825260208201905092915050565b6000819050602082019050919050565b6000819050919050565b611f1c81611f09565b82525050565b600081519050919050565b600082825260208201905092915050565b60005b83811015611f5c578082015181840152602081019050611f41565b60008484015250505050565b6000611f7382611f22565b611f7d8185611f2d565b9350611f8d818560208601611f3e565b611f9681611c24565b840191505092915050565b611faa81611e72565b82525050565b60008115159050919050565b611fc581611fb0565b82525050565b600060c083016000830151611fe36000860182611f13565b5060208301518482036020860152611ffb8282611f68565b91505060408301516120106040860182611fa1565b5060608301516120236060860182611f13565b5060808301516120366080860182611fbc565b5060a083015161204960a0860182611f13565b508091505092915050565b60006120608383611fcb565b905092915050565b6000602082019050919050565b600061208082611edd565b61208a8185611ee8565b93508360208202850161209c85611ef9565b8060005b858110156120d857848403895281516120b98582612054565b94506120c483612068565b925060208a019950506001810190506120a0565b50829750879550505050505092915050565b600060208201905081810360008301526121048184612075565b905092915050565b61211581611f09565b811461212057600080fd5b50565b6000813590506121328161210c565b92915050565b60006020828403121561214e5761214d611c10565b5b600061215c84828501612123565b91505092915050565b600082825260208201905092915050565b600061218182611f22565b61218b8185612165565b935061219b818560208601611f3e565b6121a481611c24565b840191505092915050565b600060408201905081810360008301526121c98185612176565b905081810360208301526121dd8184612176565b90509392505050565b600082825260208201905092915050565b600061220282611edd565b61220c81856121e6565b93508360208202850161221e85611ef9565b8060005b8581101561225a578484038952815161223b8582612054565b945061224683612068565b925060208a01995050600181019050612222565b50829750879550505050505092915050565b60006080830160008301516122846000860182611fa1565b506020830151848203602086015261229c8282611f68565b915050604083015184820360408601526122b68282611f68565b915050606083015184820360608601526122d082826121f7565b9150508091505092915050565b600060208201905081810360008301526122f7818461226c565b905092915050565b60006020828403121561231557612314611c10565b5b600082013567ffffffffffffffff81111561233357612332611c15565b5b61233f84828501611d32565b91505092915050565b600061235382611e24565b9050919050565b61236381612348565b82525050565b600060208201905061237e600083018461235a565b92915050565b600060c08301600083015161239c6000860182611f13565b50602083015184820360208601526123b48282611f68565b91505060408301516123c96040860182611fa1565b5060608301516123dc6060860182611f13565b5060808301516123ef6080860182611fbc565b5060a083015161240260a0860182611f13565b508091505092915050565b600060208201905081810360008301526124278184612384565b905092915050565b61243881611f09565b82525050565b6000602082019050612453600083018461242f565b92915050565b7f557365726e616d652063616e6e6f7420626520656d7074790000000000000000600082015250565b600061248f601883612165565b915061249a82612459565b602082019050919050565b600060208201905081810360008301526124be81612482565b9050919050565b7f4e487b7100000000000000000000000000000000000000000000000000000000600052602260045260246000fd5b6000600282049050600182168061250c57607f821691505b60208210810361251f5761251e6124c5565b5b50919050565b7f5573657220616c72656164792072656769737465726564000000000000000000600082015250565b600061255b601783612165565b915061256682612525565b602082019050919050565b6000602082019050818103600083015261258a8161254e565b9050919050565b60008190508160005260206000209050919050565b60006020601f8301049050919050565b600082821b905092915050565b6000600883026125f37fffffffffffffffffffffffffffffffffffffffffffffffffffffffffffffffff826125b6565b6125fd86836125b6565b95508019841693508086168417925050509392505050565b600061263061262b61262684611f09565b611df8565b611f09565b9050919050565b6000819050919050565b61264a83612615565b61265e61265682612637565b8484546125c3565b825550505050565b600090565b612673612666565b61267e818484612641565b505050565b5b818110156126a25761269760008261266b565b600181019050612684565b5050565b601f8211156126e7576126b881612591565b6126c1846125a6565b810160208510156126d0578190505b6126e46126dc856125a6565b830182612683565b50505b505050565b600082821c905092915050565b600061270a600019846008026126ec565b1980831691505092915050565b600061272383836126f9565b9150826002028217905092915050565b61273c82611f22565b67ffffffffffffffff81111561275557612754611c35565b5b61275f82546124f4565b61276a8282856126a6565b600060209050601f83116001811461279d576000841561278b578287015190505b6127958582612717565b8655506127fd565b601f1984166127ab86612591565b60005b828110156127d3578489015182556001820191506020850194506020810190506127ae565b868310156127f057848901516127ec601f8916826126f9565b8355505b6001600288020188555050505b505050505050565b7f4e487b7100000000000000000000000000000000000000000000000000000000600052601160045260246000fd5b600061283f82611f09565b915061284a83611f09565b925082820390508181111561286257612861612805565b5b92915050565b7f4e487b7100000000000000000000000000000000000000000000000000000000600052603260045260246000fd5b60006128a282611f09565b91507fffffffffffffffffffffffffffffffffffffffffffffffffffffffffffffffff82036128d4576128d3612805565b5b600182019050919050565b7f55736572206e6f74207265676973746572656400000000000000000000000000600082015250565b6000612915601383612165565b9150612920826128df565b602082019050919050565b6000602082019050818103600083015261294481612908565b9050919050565b7f496e76616c696420747765657420494400000000000000000000000000000000600082015250565b6000612981601083612165565b915061298c8261294b565b602082019050919050565b600060208201905081810360008301526129b081612974565b9050919050565b7f4f6e6c792074686520617574686f722063616e2064656c65746520746869732060008201527f7477656574000000000000000000000000000000000000000000000000000000602082015250565b6000612a13602583612165565b9150612a1e826129b7565b604082019050919050565b60006020820190508181036000830152612a4281612a06565b9050919050565b7f547765657420616c72656164792064656c657465640000000000000000000000600082015250565b6000612a7f601583612165565b9150612a8a82612a49565b602082019050919050565b60006020820190508181036000830152612aae81612a72565b9050919050565b7f43616e6e6f74206c696b6520612064656c657465642074776565740000000000600082015250565b6000612aeb601b83612165565b9150612af682612ab5565b602082019050919050565b60006020820190508181036000830152612b1a81612ade565b9050919050565b612b2a81611e72565b82525050565b6000602082019050612b456000830184612b21565b92915050565b600081519050612b5a8161210c565b92915050565b600060208284031215612b7657612b75611c10565b5b6000612b8484828501612b4b565b91505092915050565b7f496e73756666696369656e74205477697474657220746f6b656e7320746f206c60008201527f696b652074776565740000000000000000000000000000000000000000000000602082015250565b6000612be9602983612165565b9150612bf482612b8d565b604082019050919050565b60006020820190508181036000830152612c1881612bdc565b9050919050565b6000606082019050612c346000830186612b21565b612c416020830185612b21565b612c4e604083018461242f565b949350505050565b612c5f81611fb0565b8114612c6a57600080fd5b50565b600081519050612c7c81612c56565b92915050565b600060208284031215612c9857612c97611c10565b5b6000612ca684828501612c6d565b91505092915050565b7f546f6b656e207472616e73666572206661696c65640000000000000000000000600082015250565b6000612ce5601583612165565b9150612cf082612caf565b602082019050919050565b60006020820190508181036000830152612d1481612cd8565b9050919050565b7f43616e6e6f74206c696b6520796f7572206f776e207477656574000000000000600082015250565b6000612d51601a83612165565b9150612d5c82612d1b565b602082019050919050565b60006020820190508181036000830152612d8081612d44565b9050919050565b7f547765657420636f6e74656e742063616e6e6f7420626520656d707479000000600082015250565b6000612dbd601d83612165565b9150612dc882612d87565b602082019050919050565b60006020820190508181036000830152612dec81612db0565b9050919050565b7f496e73756666696369656e74205477697474657220746f6b656e7320746f206360008201527f7265617465207477656574000000000000000000000000000000000000000000602082015250565b6000612e4f602b83612165565b9150612e5a82612df3565b604082019050919050565b60006020820190508181036000830152612e7e81612e42565b9050919050565b60006020820190508181036000830152612e9f8184612176565b90509291505056fea2646970667358221220ff62a00109002a9a31e0f8c6c94c28ac7e033f67a2dad5f16a9ddb40811739d764736f6c634300081c0033",
  "linkReferences": {},
  "deployedLinkReferences": {}
}