{
  "_format": "hh-sol-artifact-1",
  "contractName": "TwitterAccount",
  "sourceName": "contracts/TwitterAccount.sol",
  "abi": [
    {
      "inputs": [
        {
          "internalType": "address",
          "name": "_twitterToken",
          "type": "address"
        },
        {
          "internalType": "address",
          "name": "_tokenFaucet",
          "type": "address"
        }
      ],
      "stateMutability": "nonpayable",
      "type": "constructor"
    },
    {
      "anonymous": false,
      "inputs": [
        {
          "indexed": true,
          "internalType": "uint256",
          "name": "tweetId",
          "type": "uint256"
        },
        {
          "indexed": true,
          "internalType": "address",
          "name": "author",
          "type": "address"
        },
        {
          "indexed": false,
          "internalType": "string",
          "name": "content",
          "type": "string"
        }
      ],
      "name": "TweetCreated",
      "type": "event"
    },
    {
      "anonymous": false,
      "inputs": [
        {
          "indexed": true,
          "internalType": "uint256",
          "name": "tweetId",
          "type": "uint256"
        },
        {
          "indexed": true,
          "internalType": "address",
          "name": "author",
          "type": "address"
        }
      ],
      "name": "TweetDeleted",
      "type": "event"
    },
    {
      "anonymous": false,
      "inputs": [
        {
          "indexed": true,
          "internalType": "uint256",
          "name": "tweetId",
          "type": "uint256"
        },
        {
          "indexed": true,
          "internalType": "address",
          "name": "user",
          "type": "address"
        }
      ],
      "name": "TweetLiked",
      "type": "event"
    },
    {
      "anonymous": false,
      "inputs": [
        {
          "indexed": true,
          "internalType": "address",
          "name": "userAddress",
          "type": "address"
        },
        {
          "indexed": false,
          "internalType": "string",
          "name": "username",
          "type": "string"
        },
        {
          "indexed": false,
          "internalType": "string",
          "name": "bio",
          "type": "string"
        }
      ],
      "name": "UserRegistered",
      "type": "event"
    },
    {
      "inputs": [],
      "name": "LIKE_COST",
      "outputs": [
        {
          "internalType": "uint256",
          "name": "",
          "type": "uint256"
        }
      ],
      "stateMutability": "view",
      "type": "function"
    },
    {
      "inputs": [],
      "name": "TWEET_COST",
      "outputs": [
        {
          "internalType": "uint256",
          "name": "",
          "type": "uint256"
        }
      ],
      "stateMutability": "view",
      "type": "function"
    },
    {
      "inputs": [
        {
          "internalType": "address",
          "name": "_user",
          "type": "address"
        }
      ],
      "name": "balanceOf",
      "outputs": [
        {
          "internalType": "uint256",
          "name": "",
          "type": "uint256"
        }
      ],
      "stateMutability": "view",
      "type": "function"
    },
    {
      "inputs": [
        {
          "internalType": "string",
          "name": "_content",
          "type": "string"
        }
      ],
      "name": "createTweet",
      "outputs": [],
      "stateMutability": "nonpayable",
      "type": "function"
    },
    {
      "inputs": [
        {
          "internalType": "uint256",
          "name": "_tweetId",
          "type": "uint256"
        }
      ],
      "name": "deleteTweet",
      "outputs": [],
      "stateMutability": "nonpayable",
      "type": "function"
    },
    {
      "inputs": [],
      "name": "getAllTweets",
      "outputs": [
        {
          "components": [
            {
              "internalType": "uint256",
              "name": "id",
              "type": "uint256"
            },
            {
              "internalType": "string",
              "name": "content",
              "type": "string"
            },
            {
              "internalType": "address",
              "name": "author",
              "type": "address"
            },
            {
              "internalType": "uint256",
              "name": "timestamp",
              "type": "uint256"
            },
            {
              "internalType": "bool",
              "name": "isDeleted",
              "type": "bool"
            },
            {
              "internalType": "uint256",
              "name": "likeCount",
              "type": "uint256"
            }
          ],
          "internalType": "struct TwitterAccount.Tweet[]",
          "name": "",
          "type": "tuple[]"
        }
      ],
      "stateMutability": "view",
      "type": "function"
    },
    {
      "inputs": [
        {
          "internalType": "uint256",
          "name": "_tweetId",
          "type": "uint256"
        }
      ],
      "name": "getTweet",
      "outputs": [
        {
          "components": [
            {
              "internalType": "uint256",
              "name": "id",
              "type": "uint256"
            },
            {
              "internalType": "string",
              "name": "content",
              "type": "string"
            },
            {
              "internalType": "address",
              "name": "author",
              "type": "address"
            },
            {
              "internalType": "uint256",
              "name": "timestamp",
              "type": "uint256"
            },
            {
              "internalType": "bool",
              "name": "isDeleted",
              "type": "bool"
            },
            {
              "internalType": "uint256",
              "name": "likeCount",
              "type": "uint256"
            }
          ],
          "internalType": "struct TwitterAccount.Tweet",
          "name": "",
          "type": "tuple"
        }
      ],
      "stateMutability": "view",
      "type": "function"
    },
    {
      "inputs": [
        {
          "internalType": "address",
          "name": "_user",
          "type": "address"
        }
      ],
      "name": "getUserByAddress",
      "outputs": [
        {
          "components": [
            {
              "internalType": "address",
              "name": "userAddress",
              "type": "address"
            },
            {
              "internalType": "string",
              "name": "username",
              "type": "string"
            },
            {
              "internalType": "string",
              "name": "bio",
              "type": "string"
            },
            {
              "components": [
                {
                  "internalType": "uint256",
                  "name": "id",
                  "type": "uint256"
                },
                {
                  "internalType": "string",
                  "name": "content",
                  "type": "string"
                },
                {
                  "internalType": "address",
                  "name": "author",
                  "type": "address"
                },
                {
                  "internalType": "uint256",
                  "name": "timestamp",
                  "type": "uint256"
                },
                {
                  "internalType": "bool",
                  "name": "isDeleted",
                  "type": "bool"
                },
                {
                  "internalType": "uint256",
                  "name": "likeCount",
                  "type": "uint256"
                }
              ],
              "internalType": "struct TwitterAccount.Tweet[]",
              "name": "tweets",
              "type": "tuple[]"
            }
          ],
          "internalType": "struct TwitterAccount.TwitterUser",
          "name": "",
          "type": "tuple"
        }
      ],
      "stateMutability": "view",
      "type": "function"
    },
    {
      "inputs": [
        {
          "internalType": "address",
          "name": "_user",
          "type": "address"
        }
      ],
      "name": "getUserInfo",
      "outputs": [
        {
          "internalType": "string",
          "name": "",
          "type": "string"
        },
        {
          "internalType": "string",
          "name": "",
          "type": "string"
        }
      ],
      "stateMutability": "view",
      "type": "function"
    },
    {
      "inputs": [
        {
          "internalType": "address",
          "name": "_user",
          "type": "address"
        }
      ],
      "name": "getUserTweets",
      "outputs": [
        {
          "components": [
            {
              "internalType": "uint256",
              "name": "id",
              "type": "uint256"
            },
            {
              "internalType": "string",
              "name": "content",
              "type": "string"
            },
            {
              "internalType": "address",
              "name": "author",
              "type": "address"
            },
            {
              "internalType": "uint256",
              "name": "timestamp",
              "type": "uint256"
            },
            {
              "internalType": "bool",
              "name": "isDeleted",
              "type": "bool"
            },
            {
              "internalType": "uint256",
              "name": "likeCount",
              "type": "uint256"
            }
          ],
          "internalType": "struct TwitterAccount.Tweet[]",
          "name": "",
          "type": "tuple[]"
        }
      ],
      "stateMutability": "view",
      "type": "function"
    },
    {
      "inputs": [
        {
          "internalType": "uint256",
          "name": "_tweetId",
          "type": "uint256"
        }
      ],
      "name": "likeTweet",
      "outputs": [],
      "stateMutability": "nonpayable",
      "type": "function"
    },
    {
      "inputs": [
        {
          "internalType": "string",
          "name": "_username",
          "type": "string"
        },
        {
          "internalType": "string",
          "name": "_bio",
          "type": "string"
        }
      ],
      "name": "registerUser",
      "outputs": [],
      "stateMutability": "nonpayable",
      "type": "function"
    },
    {
      "inputs": [],
      "name": "tokenFaucet",
      "outputs": [
        {
          "internalType": "contract TokenFaucet",
          "name": "",
          "type": "address"
        }
      ],
      "stateMutability": "view",
      "type": "function"
    },
    {
      "inputs": [],
      "name": "twitterToken",
      "outputs": [
        {
          "internalType": "contract IERC20",
          "name": "",
          "type": "address"
        }
      ],
      "stateMutability": "view",
      "type": "function"
    }
  ],
  "bytecode": "0x6080604052348015600f57600080fd5b50604051611c67380380611c67833981016040819052602c916077565b600080546001600160a01b039384166001600160a01b0319918216179091556001805492909316911617905560a5565b80516001600160a01b0381168114607257600080fd5b919050565b60008060408385031215608957600080fd5b609083605c565b9150609c60208401605c565b90509250929050565b611bb3806100b46000396000f3fe608060405234801561001057600080fd5b50600436106100ea5760003560e01c806369c212f61161008c57806389eb068a1161006657806389eb068a146101f7578063c3ad5ecb1461020a578063ee21cac41461022a578063ff26506b1461023957600080fd5b806369c212f6146101a357806370a08231146101c35780637c9cd2bc146101e457600080fd5b806353256135116100c857806353256135146101545780635775912a1461015c5780635ffc6ceb1461016f5780636386c1c71461018257600080fd5b80631d2e4afd146100ef5780632cc38899146101045780632f5899d714610134575b600080fd5b6101026100fd366004611679565b610248565b005b600054610117906001600160a01b031681565b6040516001600160a01b0390911681526020015b60405180910390f35b6101476101423660046116e2565b61039d565b60405161012b91906117b4565b6101476104ed565b61010261016a366004611819565b610685565b61010261017d366004611819565b61082c565b6101956101903660046116e2565b610b21565b60405161012b929190611832565b6101b66101b13660046116e2565b610c77565b60405161012b9190611860565b6101d66101d13660046116e2565b610ffd565b60405190815260200161012b565b6101026101f2366004611918565b611072565b600154610117906001600160a01b031681565b61021d610218366004611819565b611443565b60405161012b9190611955565b6101d6678ac7230489e8000081565b6101d6670de0b6b3a764000081565b600082511161029e5760405162461bcd60e51b815260206004820152601860248201527f557365726e616d652063616e6e6f7420626520656d707479000000000000000060448201526064015b60405180910390fd5b33600090815260026020526040902060010180546102bb90611968565b15905061030a5760405162461bcd60e51b815260206004820152601760248201527f5573657220616c726561647920726567697374657265640000000000000000006044820152606401610295565b33600081815260026020526040902080546001600160a01b031916909117815560010161033783826119eb565b503360009081526002602081905260409091200161035582826119eb565b50336001600160a01b03167f92822564bab8864c3a47b34e8d23fbce5c46234eb5da261f94087b995ac0f33b8383604051610391929190611832565b60405180910390a25050565b6001600160a01b0381166000908152600260209081526040808320600301805482518185028101850190935280835260609492939192909184015b828210156104e257838290600052602060002090600602016040518060c00160405290816000820154815260200160018201805461041590611968565b80601f016020809104026020016040519081016040528092919081815260200182805461044190611968565b801561048e5780601f106104635761010080835404028352916020019161048e565b820191906000526020600020905b81548152906001019060200180831161047157829003601f168201915b505050918352505060028201546001600160a01b031660208083019190915260038301546040830152600483015460ff161515606083015260059092015460809091015290825260019290920191016103d8565b505050509050919050565b6060600060045467ffffffffffffffff81111561050c5761050c6115d4565b60405190808252806020026020018201604052801561054557816020015b610532611593565b81526020019060019003908161052a5790505b50905060015b600454811161067f57600360008281526020019081526020016000206040518060c00160405290816000820154815260200160018201805461058c90611968565b80601f01602080910402602001604051908101604052809291908181526020018280546105b890611968565b80156106055780601f106105da57610100808354040283529160200191610605565b820191906000526020600020905b8154815290600101906020018083116105e857829003601f168201915b505050918352505060028201546001600160a01b0316602082015260038201546040820152600482015460ff161515606082015260059091015460809091015282610651600184611ac0565b8151811061066157610661611ad3565b6020026020010181905250808061067790611ae9565b91505061054b565b50919050565b33600090815260026020526040812060010180546106a290611968565b9050116106c15760405162461bcd60e51b815260040161029590611b02565b6000811180156106d357506004548111155b6107125760405162461bcd60e51b815260206004820152601060248201526f125b9d985b1a59081d1dd9595d08125160821b6044820152606401610295565b6000818152600360205260409020600201546001600160a01b031633146107895760405162461bcd60e51b815260206004820152602560248201527f4f6e6c792074686520617574686f722063616e2064656c6574652074686973206044820152641d1dd9595d60da1b6064820152608401610295565b60008181526003602052604090206004015460ff16156107e35760405162461bcd60e51b8152602060048201526015602482015274151dd9595d08185b1c9958591e4819195b195d1959605a1b6044820152606401610295565b600081815260036020526040808220600401805460ff1916600117905551339183917f0c59351147397e5db9e258c8812261c4841477fed0248739ffd0ba3e452755069190a350565b336000908152600260205260408120600101805461084990611968565b9050116108685760405162461bcd60e51b815260040161029590611b02565b60008181526003602052604090206004015460ff16156108ca5760405162461bcd60e51b815260206004820152601b60248201527f43616e6e6f74206c696b6520612064656c6574656420747765657400000000006044820152606401610295565b6000546040516370a0823160e01b8152336004820152670de0b6b3a7640000916001600160a01b0316906370a0823190602401602060405180830381865afa15801561091a573d6000803e3d6000fd5b505050506040513d601f19601f8201168201806040525081019061093e9190611b2f565b101561099e5760405162461bcd60e51b815260206004820152602960248201527f496e73756666696369656e74205477697474657220746f6b656e7320746f206c6044820152681a5ad9481d1dd9595d60ba1b6064820152608401610295565b6000546040516323b872dd60e01b8152336004820152306024820152670de0b6b3a764000060448201526001600160a01b03909116906323b872dd906064016020604051808303816000875af11580156109fc573d6000803e3d6000fd5b505050506040513d601f19601f82011682018060405250810190610a209190611b48565b610a645760405162461bcd60e51b8152602060048201526015602482015274151bdad95b881d1c985b9cd9995c8819985a5b1959605a1b6044820152606401610295565b600081815260036020526040902060020154336001600160a01b0390911603610acf5760405162461bcd60e51b815260206004820152601a60248201527f43616e6e6f74206c696b6520796f7572206f776e2074776565740000000000006044820152606401610295565b6000818152600360205260408120600501805491610aec83611ae9565b9091555050604051339082907f33b8f513b5466d89f2a96589e6e48f7682fddc5debd283e6bb921ed3bba52b7890600090a350565b606080600060026000856001600160a01b03166001600160a01b0316815260200190815260200160002090508060010181600201818054610b6190611968565b80601f0160208091040260200160405190810160405280929190818152602001828054610b8d90611968565b8015610bda5780601f10610baf57610100808354040283529160200191610bda565b820191906000526020600020905b815481529060010190602001808311610bbd57829003601f168201915b50505050509150808054610bed90611968565b80601f0160208091040260200160405190810160405280929190818152602001828054610c1990611968565b8015610c665780601f10610c3b57610100808354040283529160200191610c66565b820191906000526020600020905b815481529060010190602001808311610c4957829003601f168201915b505050505090509250925050915091565b610cab604051806080016040528060006001600160a01b031681526020016060815260200160608152602001606081525090565b6001600160a01b0382166000908152600260205260409020600181018054610cd290611968565b9050600003610d7d57604051806080016040528060006001600160a01b03168152602001604051806020016040528060008152508152602001604051806020016040528060008152508152602001600067ffffffffffffffff811115610d3a57610d3a6115d4565b604051908082528060200260200182016040528015610d7357816020015b610d60611593565b815260200190600190039081610d585790505b5090529392505050565b604080516080810190915281546001600160a01b0316815260018201805483916020840191610dab90611968565b80601f0160208091040260200160405190810160405280929190818152602001828054610dd790611968565b8015610e245780601f10610df957610100808354040283529160200191610e24565b820191906000526020600020905b815481529060010190602001808311610e0757829003601f168201915b50505050508152602001600282018054610e3d90611968565b80601f0160208091040260200160405190810160405280929190818152602001828054610e6990611968565b8015610eb65780601f10610e8b57610100808354040283529160200191610eb6565b820191906000526020600020905b815481529060010190602001808311610e9957829003601f168201915b5050505050815260200160038201805480602002602001604051908101604052809291908181526020016000905b82821015610fee57838290600052602060002090600602016040518060c001604052908160008201548152602001600182018054610f2190611968565b80601f0160208091040260200160405190810160405280929190818152602001828054610f4d90611968565b8015610f9a5780601f10610f6f57610100808354040283529160200191610f9a565b820191906000526020600020905b815481529060010190602001808311610f7d57829003601f168201915b505050918352505060028201546001600160a01b031660208083019190915260038301546040830152600483015460ff16151560608301526005909201546080909101529082526001929092019101610ee4565b50505091525090949350505050565b600080546040516370a0823160e01b81526001600160a01b038481166004830152909116906370a0823190602401602060405180830381865afa158015611048573d6000803e3d6000fd5b505050506040513d601f19601f8201168201806040525081019061106c9190611b2f565b92915050565b336000908152600260205260408120600101805461108f90611968565b9050116110ae5760405162461bcd60e51b815260040161029590611b02565b60008151116110ff5760405162461bcd60e51b815260206004820152601d60248201527f547765657420636f6e74656e742063616e6e6f7420626520656d7074790000006044820152606401610295565b6000546040516370a0823160e01b8152336004820152678ac7230489e80000916001600160a01b0316906370a0823190602401602060405180830381865afa15801561114f573d6000803e3d6000fd5b505050506040513d601f19601f820116820180604052508101906111739190611b2f565b10156111d55760405162461bcd60e51b815260206004820152602b60248201527f496e73756666696369656e74205477697474657220746f6b656e7320746f206360448201526a1c99585d19481d1dd9595d60aa1b6064820152608401610295565b6000546040516323b872dd60e01b8152336004820152306024820152678ac7230489e8000060448201526001600160a01b03909116906323b872dd906064016020604051808303816000875af1158015611233573d6000803e3d6000fd5b505050506040513d601f19601f820116820180604052508101906112579190611b48565b61129b5760405162461bcd60e51b8152602060048201526015602482015274151bdad95b881d1c985b9cd9995c8819985a5b1959605a1b6044820152606401610295565b600480549060006112ab83611ae9565b90915550506040805160c081018252600454815260208082018481523383850181905242606085015260006080850181905260a085018190529081526002835293842060030180546001818101835591865292909420835160069093020191825551919283929082019061131f90826119eb565b506040828101516002830180546001600160a01b0319166001600160a01b03909216919091179055606083015160038084019190915560808401516004808501805460ff19169215159290921790915560a09094015160059093019290925591546000908152602091825291909120825181559082015182919060018201906113a890826119eb565b506040828101516002830180546001600160a01b0319166001600160a01b039092169190911790556060830151600383015560808301516004808401805460ff19169215159290921790915560a090930151600590920191909155905490513391907f5b04dbcff53dfd77771f59e7ba56ec837ac5325729cf7f1dd0ed4aef082a6aab90611437908690611b6a565b60405180910390a35050565b61144b611593565b60008211801561145d57506004548211155b61149c5760405162461bcd60e51b815260206004820152601060248201526f125b9d985b1a59081d1dd9595d08125160821b6044820152606401610295565b600360008381526020019081526020016000206040518060c0016040529081600082015481526020016001820180546114d490611968565b80601f016020809104026020016040519081016040528092919081815260200182805461150090611968565b801561154d5780601f106115225761010080835404028352916020019161154d565b820191906000526020600020905b81548152906001019060200180831161153057829003601f168201915b505050918352505060028201546001600160a01b0316602082015260038201546040820152600482015460ff161515606082015260059091015460809091015292915050565b6040518060c00160405280600081526020016060815260200160006001600160a01b0316815260200160008152602001600015158152602001600081525090565b634e487b7160e01b600052604160045260246000fd5b600082601f8301126115fb57600080fd5b813567ffffffffffffffff811115611615576116156115d4565b604051601f8201601f19908116603f0116810167ffffffffffffffff81118282101715611644576116446115d4565b60405281815283820160200185101561165c57600080fd5b816020850160208301376000918101602001919091529392505050565b6000806040838503121561168c57600080fd5b823567ffffffffffffffff8111156116a357600080fd5b6116af858286016115ea565b925050602083013567ffffffffffffffff8111156116cc57600080fd5b6116d8858286016115ea565b9150509250929050565b6000602082840312156116f457600080fd5b81356001600160a01b038116811461170b57600080fd5b9392505050565b6000815180845260005b818110156117385760208185018101518683018201520161171c565b506000602082860101526020601f19601f83011685010191505092915050565b805182526000602082015160c0602085015261177760c0850182611712565b6040848101516001600160a01b0316908601526060808501519086015260808085015115159086015260a093840151949093019390935250919050565b6000602082016020835280845180835260408501915060408160051b86010192506020860160005b8281101561180d57603f198786030184526117f8858351611758565b945060209384019391909101906001016117dc565b50929695505050505050565b60006020828403121561182b57600080fd5b5035919050565b6040815260006118456040830185611712565b82810360208401526118578185611712565b95945050505050565b602080825282516001600160a01b0316828201528201516080604083015260009061188e60a0840182611712565b90506040840151601f198483030160608501526118ab8282611712565b6060860151858203601f190160808701528051808352919350602090810192508084019190600582901b85010160005b8281101561190c57601f198683030184526118f7828651611758565b602095860195949094019391506001016118db565b50979650505050505050565b60006020828403121561192a57600080fd5b813567ffffffffffffffff81111561194157600080fd5b61194d848285016115ea565b949350505050565b60208152600061170b6020830184611758565b600181811c9082168061197c57607f821691505b60208210810361067f57634e487b7160e01b600052602260045260246000fd5b601f8211156119e657806000526020600020601f840160051c810160208510156119c35750805b601f840160051c820191505b818110156119e357600081556001016119cf565b50505b505050565b815167ffffffffffffffff811115611a0557611a056115d4565b611a1981611a138454611968565b8461199c565b6020601f821160018114611a4d5760008315611a355750848201515b600019600385901b1c1916600184901b1784556119e3565b600084815260208120601f198516915b82811015611a7d5787850151825560209485019460019092019101611a5d565b5084821015611a9b5786840151600019600387901b60f8161c191681555b50505050600190811b01905550565b634e487b7160e01b600052601160045260246000fd5b8181038181111561106c5761106c611aaa565b634e487b7160e01b600052603260045260246000fd5b600060018201611afb57611afb611aaa565b5060010190565b602080825260139082015272155cd95c881b9bdd081c9959da5cdd195c9959606a1b604082015260600190565b600060208284031215611b4157600080fd5b5051919050565b600060208284031215611b5a57600080fd5b8151801515811461170b57600080fd5b60208152600061170b602083018461171256fea264697066735822122052c2d7cb7a93bd52c38e387fff8a9eedc1108984f50bd4108d9e0ea3b19ae82164736f6c634300081c0033",
  "linkReferences": {},
  "deployedLinkReferences": {}
}